:100A88004F626A65637420436F756E7465720043C4
:0B0A98006F756E74203A203030300083
:070AE20001104E020E00009E
:0D0ACC00D2A00000D2A10000C2A0000022B4
:090AD900C2A1C2A0D2A1D2A02248
:030AEA008F0D224B
:060ABC00440CFF120A10B9
:0A0AC200C2A1D2A0D2A120A0FD2203
:020A1000AD0730
:100A1200E4FCC2A17E007480A804088006CEA2E78E
:100A220013CE13D8F8FFEDFBEF5B6003D38001C355
:080A320092A0D2A10CBC08DA6D
:010A3A002299
:10098D00EFC454F0F508EF54F0F509120ACCAF0D91
:10099D00120A10120AC2E509120ABC120A3BE50935
:1009AD004408120ABE7F0A7E00120A3FE508120AA9
:1009BD00BC120A3BE5084408120ABE7F0A7E0012EB
:0509CD000A3F020AD9F7
:10094400EFC454F0F50BEF54F0F50C120ACCAF0DD4
:10095400120A10120AC2E50C440D120ABE120A3B16
:10096400E50C4409120ABE7F0A7E00120A3FE50B19
:10097400440D120ABE120A3BE50B4409120ABE7F5B
:090984000A7E00120A3F020AD9A2
:100A63008B088A09890AAB08AA09A90A12088C60AB
:100A730013050AE50A7002050914F912088CFF121E
:050A8300094480E2229D
:040A3B007F017E00B9
:100A3F00D3EF9400EE9400401A7D797C00ED1D7089
:100A4F00011CED4C70F7000000000000EF1F70E07C
:030A5F001E80DD19
:010A62002271
:100AA3007F0212098D7F2812098D7F0C12098D7F19
:090AB3000612098D7F0102098D74
:1008FA00050FE50F7002050E7FC812098DAE0EAF07
:10090A000F7C007D641208A5EF2430FF120944AE63
:10091A000EAF0F7C007D0A1208A57C007D0A120822
:10092A00A5ED2430FF120944AE0EAF0F7C007D0AFC
:0A093A001208A5ED2430FF02094465
:1009D200AF10120AEA120AA37F8012098D7BFF7AF6
:1009E2000A7988120A637FC012098D7BFF7A0A791D
:1009F20097120A63C2912090FD7F327E00120A3F55
:0E0A0200209004D29180F91208FAC29180E887
:03000000020800F3
:0C080000787FE4F6D8FD758110020847EF
:10088C00BB010689828A83E0225002E722BBFE026A
:09089C00E32289828A83E493229D
:1008A500BC000BBE0029EF8DF084FFADF022E4CC37
:1008B500F875F008EF2FFFEE33FEEC33FCEE9DEC00
:1008C500984005FCEE9DFE0FD5F0E9E4CEFD22ED46
:1008D500F8F5F0EE8420D21CFEADF075F008EF2F90
:1008E500FFED33FD4007985006D5F0F222C398FD81
:0508F5000FD5F0EA221E
:10080C000209D2E493A3F8E493A34003F68001F227
:10081C0008DFF48029E493A3F85407240CC8C333ED
:10082C00C4540F4420C8834004F456800146F6DFBC
:10083C00E4800B0102040810204080900AE2E47E60
:10084C00019360BCA3FF543F30E509541FFEE493B1
:10085C00A360010ECF54C025E060A840B8E493A378
:10086C00FAE493A3F8E493A3C8C582C8CAC583CAA3
:10087C00F0A3C8C582C8CAC583CADFE9DEE780BE5B
:010AE900000C
:00000001FF
